{
  "contractName": "Auction",
  "abi": [
    {
      "inputs": [],
      "payable": false,
      "stateMutability": "nonpayable",
      "type": "constructor"
    },
    {
      "constant": true,
      "inputs": [],
      "name": "auctionEndedMoneyWithdrawn",
      "outputs": [
        {
          "internalType": "bool",
          "name": "",
          "type": "bool"
        }
      ],
      "payable": false,
      "stateMutability": "view",
      "type": "function"
    },
    {
      "constant": true,
      "inputs": [],
      "name": "beneficiary",
      "outputs": [
        {
          "internalType": "address payable",
          "name": "",
          "type": "address"
        }
      ],
      "payable": false,
      "stateMutability": "view",
      "type": "function"
    },
    {
      "constant": true,
      "inputs": [],
      "name": "highestBid",
      "outputs": [
        {
          "internalType": "uint256",
          "name": "",
          "type": "uint256"
        }
      ],
      "payable": false,
      "stateMutability": "view",
      "type": "function"
    },
    {
      "constant": true,
      "inputs": [],
      "name": "highestBidder",
      "outputs": [
        {
          "internalType": "address",
          "name": "",
          "type": "address"
        }
      ],
      "payable": false,
      "stateMutability": "view",
      "type": "function"
    },
    {
      "constant": false,
      "inputs": [],
      "name": "bid",
      "outputs": [],
      "payable": true,
      "stateMutability": "payable",
      "type": "function"
    },
    {
      "constant": false,
      "inputs": [],
      "name": "withdraw",
      "outputs": [
        {
          "internalType": "bool",
          "name": "",
          "type": "bool"
        }
      ],
      "payable": false,
      "stateMutability": "nonpayable",
      "type": "function"
    },
    {
      "constant": false,
      "inputs": [],
      "name": "auctionEnd",
      "outputs": [],
      "payable": false,
      "stateMutability": "nonpayable",
      "type": "function"
    }
  ],
  "bytecode": "0x60806040526000600360006101000a81548160ff02191690831515021790555034801561002b57600080fd5b50336000806101000a81548173ffffffffffffffffffffffffffffffffffffffff021916908373ffffffffffffffffffffffffffffffffffffffff16021790555061085f8061007b6000396000f3fe6080604052600436106100705760003560e01c806338af3eed1161004e57806338af3eed146100c55780633ccfd60b1461011c57806391f901571461014b578063d57bde79146101a257610070565b806317abd1c3146100755780631998aeef146100a45780632a24f46c146100ae575b600080fd5b34801561008157600080fd5b5061008a6101cd565b604051808215151515815260200191505060405180910390f35b6100ac6101e0565b005b3480156100ba57600080fd5b506100c3610375565b005b3480156100d157600080fd5b506100da6104ec565b604051808273ffffffffffffffffffffffffffffffffffffffff1673ffffffffffffffffffffffffffffffffffffffff16815260200191505060405180910390f35b34801561012857600080fd5b50610131610511565b604051808215151515815260200191505060405180910390f35b34801561015757600080fd5b50610160610763565b604051808273ffffffffffffffffffffffffffffffffffffffff1673ffffffffffffffffffffffffffffffffffffffff16815260200191505060405180910390f35b3480156101ae57600080fd5b506101b7610789565b6040518082815260200191505060405180910390f35b600360009054906101000a900460ff1681565b600254341161023a576040517f08c379a00000000000000000000000000000000000000000000000000000000081526004018080602001828103825260288152602001806107906028913960400191505060405180910390fd5b60001515600360009054906101000a900460ff161515146102c3576040517f08c379a000000000000000000000000000000000000000000000000000000000815260040180806020018281038252601a8152602001807f5468652061756374696f6e20616c726561647920656e6465642e00000000000081525060200191505060405180910390fd5b60025460046000600160009054906101000a900473ffffffffffffffffffffffffffffffffffffffff1673ffffffffffffffffffffffffffffffffffffffff1673ffffffffffffffffffffffffffffffffffffffff168152602001908152602001600020819055503460028190555033600160006101000a81548173ffffffffffffffffffffffffffffffffffffffff021916908373ffffffffffffffffffffffffffffffffffffffff160217905550565b6000809054906101000a900473ffffffffffffffffffffffffffffffffffffffff1673ffffffffffffffffffffffffffffffffffffffff163373ffffffffffffffffffffffffffffffffffffffff161461041a576040517f08c379a00000000000000000000000000000000000000000000000000000000081526004018080602001828103825260298152602001806108026029913960400191505060405180910390fd5b60001515600360009054906101000a900460ff16151514610486576040517f08c379a000000000000000000000000000000000000000000000000000000000815260040180806020018281038252604a8152602001806107b8604a913960600191505060405180910390fd5b6001600360006101000a81548160ff0219169083151502179055503373ffffffffffffffffffffffffffffffffffffffff166108fc6002549081150290604051600060405180830381858888f193505050501580156104e9573d6000803e3d6000fd5b50565b6000809054906101000a900473ffffffffffffffffffffffffffffffffffffffff1681565b600080600460003373ffffffffffffffffffffffffffffffffffffffff1673ffffffffffffffffffffffffffffffffffffffff16815260200190815260200160002054116105c7576040517f08c379a000000000000000000000000000000000000000000000000000000000815260040180806020018281038252601d8152602001807f4269646465722068617320616c72656164792077697468647261776e2e00000081525060200191505060405180910390fd5b600160009054906101000a900473ffffffffffffffffffffffffffffffffffffffff1673ffffffffffffffffffffffffffffffffffffffff163373ffffffffffffffffffffffffffffffffffffffff16141561068b576040517f08c379a000000000000000000000000000000000000000000000000000000000815260040180806020018281038252601f8152602001807f48696768657374206269646465722063616e6e6f742077697468647261772e0081525060200191505060405180910390fd5b6000600460003373ffffffffffffffffffffffffffffffffffffffff1673ffffffffffffffffffffffffffffffffffffffff1681526020019081526020016000205490506000600460003373ffffffffffffffffffffffffffffffffffffffff1673ffffffffffffffffffffffffffffffffffffffff168152602001908152602001600020819055503373ffffffffffffffffffffffffffffffffffffffff166108fc829081150290604051600060405180830381858888f1935050505015801561075a573d6000803e3d6000fd5b50600191505090565b600160009054906101000a900473ffffffffffffffffffffffffffffffffffffffff1681565b6002548156fe43757272656e7420626964206973206c657373207468616e207468652068696768657374206269645468652061756374696f6e20616c726561647920656e64656420616e64206d6f6e657920686173206265656e2077697468647261776e206279207468652062656e65666963696172792e4f6e6c79207468652062656e65666963696172792063616e20656e64207468652061756374696f6e2ea265627a7a723158200c6e5cce2231c9aaeb56bdc0143fb875407b690a995866a9b6a5dc36513a50c364736f6c63430005100032",
  "source": "pragma solidity ^0.5.0;\n\ncontract Auction {\n    address payable public beneficiary;\n\n    // Current state of the auction. You can create more variables if needed\n    address public highestBidder;\n    uint public highestBid;\n    bool public auctionEndedMoneyWithdrawn = false;\n\n    // Allowed withdrawals of previous bids\n    mapping(address => uint) pendingReturns;\n\n    // Constructor\n    constructor() public {\n        beneficiary = msg.sender;\n    }\n\n    /// Bid on the auction with the value sent\n    /// together with this transaction.\n    /// The value will only be refunded if the\n    /// auction is not won.\n    function bid() public payable {\n\n\n        // TODO If the bid is not higher than highestBid, send the\n        // money back. Use \"require\"\n        require(msg.value > highestBid, \"Current bid is less than the highest bid\");\n        require(auctionEndedMoneyWithdrawn == false, \"The auction already ended.\");\n\n        pendingReturns[highestBidder] = highestBid;\n\n        // TODO update state\n        highestBid = msg.value;\n        highestBidder = msg.sender;\n\n        // TODO store the previously highest bid in pendingReturns. That bidder\n        // will need to trigger withdraw() to get the money back.\n        // For example, A bids 5 ETH. Then, B bids 6 ETH and becomes the highest bidder.\n        // Store A and 5 ETH in pendingReturns.\n        // A will need to trigger withdraw() later to get that 5 ETH back.\n\n\n\n        // Sending back the money by simply using\n        // highestBidder.send(highestBid) is a security risk\n        // because it could execute an untrusted contract.\n        // It is always safer to let the recipients\n        // withdraw their money themselves.\n\n    }\n\n    /// Withdraw a bid that was overbid.\n    function withdraw() public returns (bool) {\n\n        // TODO send back the amount in pendingReturns to the sender. Try to avoid the reentrancy attack. Return false if there is an error when sending\n        require(pendingReturns[msg.sender] > 0, \"Bidder has already withdrawn.\");\n        require(msg.sender != highestBidder, \"Highest bidder cannot withdraw.\");\n        uint withdrawableAmount = pendingReturns[msg.sender];\n        pendingReturns[msg.sender] = 0;\n        msg.sender.transfer(withdrawableAmount);\n        return true;\n        // Delete the mapping element after withdrawal.\n    }\n\n    /// End the auction and send the highest bid\n    /// to the beneficiary.\n    function auctionEnd() public {\n        // Only the beneficiary can trigger this function. Use \"require\"\n        require(msg.sender == beneficiary, \"Only the beneficiary can end the auction.\");\n        // Beneficiary can't call this auctionEnd() multiple times to drain money\n        require(auctionEndedMoneyWithdrawn == false, \"The auction already ended and money has been withdrawn by the beneficiary.\");\n        auctionEndedMoneyWithdrawn = true;\n\n\n        //TODO send money to the beneficiary account. Make sure that it can't call this auctionEnd() multiple times to drain money\n\n        // Final transfer\n        msg.sender.transfer(highestBid);\n    }\n}\n",
  "sourcePath": "/Users/bhuvanmalik/Desktop/Blockchain/eth-auction/contracts/Auction.sol",
  "compiler": {
    "name": "solc",
    "version": "0.5.16+commit.9c3226ce.Emscripten.clang"
  },
  "schemaVersion": "3.0.23",
  "updatedAt": "2020-02-25T04:20:37.119Z",
  "networkType": "ethereum",
  "devdoc": {
    "methods": {}
  },
  "userdoc": {
    "methods": {
      "auctionEnd()": {
        "notice": "End the auction and send the highest bid to the beneficiary."
      },
      "bid()": {
        "notice": "Bid on the auction with the value sent together with this transaction. The value will only be refunded if the auction is not won."
      },
      "withdraw()": {
        "notice": "Withdraw a bid that was overbid."
      }
    }
  }
}